:10F16A000000000000000000000000000000000095
:10F17A000000000000000000000000000000000085
:10F18A000000000000000000000000000000000075
:10F19A000000000000000000000000000000000065
:10F1AA000000000000000000000000000000000055
:10F1BA000000000000000000000000000000000045
:10F1CA000000000000000000000000000000000035
:10F1DA000000000000000000000000000000000025
:10D40000640A0000000000000000000000000000AE
:10D41000000000000000000000000000000000000C
:10D4200000000000000000000000000000000000FC
:10D4300000000000000000000000000000000000EC
:10D4400000000000000000000000000000000000DC
:10F3AC009004C1E0FBA3E475F00112DD10A9F0FAA2
:10F3BC0002DC6E9004C574FFF5F012DCFA45F02205
:10F3CC00A3F0E4A3F0A374FFF0A374CCF0A3E04487
:10F3DC0001F0A37401F0A32290000312DD26AEF01D
:10F3EC0022EBF0A3EAF0A3E9F0229004BEE0FBA329
:10F3FC00E0FAA3E02290000102DC8790000202DC1C
:07F40C008790000602DC8777
:10F7390090040A7401F0745012F3CC7440F054FE32
:10F74900F090041374EFF0A3F07B017A04790A02B4
:02F75900ED5A67
:0300230002F77C65
:10F77C00C0E0C083C082309909C299900412E05451
:0EF78C00FEF0309802C298D082D083D0E032D6
:10F75B009004157402F0741012F3CC7414F090042E
:10F76B001E7401F0A374FEF07B017A04791502ED8F
:01F77B005A33
:0300430002F6F1D1
:10F6F100C0E0C083C082E59A30E10A539AFD9004CC
:10F701001DE054FEF0E59A30E003539AFED082D01A
:04F7110083D0E0328F
:10ED5A0012DC6EFD6401703B12F401F59812F4079F
:10ED6A00428912F3E4F58BEEF58D90000512DC87EB
:10ED7A0013928E90000712DC87428E90000912DCF3
:10ED8A008752B890000A12DC8752B712F40D24FF9A
:10ED9A0092AC227C00ED6402702B12F401F59A12F7
:10EDAA00F3E4F5D7EEF5D690000712DC87428E120F
:10EDBA00F40D42AF90000912DC8752B590000A1296
:10EDCA00DC8752B622ED64034C701412F401F5ACE0
:10EDDA0012F407F5D112F3E4F5D5EEF5D480191241
:10EDEA00DC6E6404701712F401F58412F40742D140
:0EEDFA0012F3E4F5D3EEF5D212F40D42AF227F
:10EF4D009004BE12F3ED12F3F64A4B700302EFDAA2
:10EF5D009004C4E060779004C4E0FF14F0EF606D9E
:10EF6D0012F3F6F912DC6E24FE6023146035146082
:10EF7D0047240370E112F3ACF59920990512F3BF04
:10EF8D0070F8A299E43354FE24FF929980C812F3CD
:10EF9D00ACF59BE59A20E10512F3BF70F6539AFD8F
:10EFAD0002EF6312F3ACF5ADE5AC20E10512F3BF52
:10EFBD0070F653ACFD02EF6312F3ACF585E58420DA
:0EEFCD00E10512F3BF70F65384FD02EF6322DC
:06F0670090048D12F3ED90
:10F06D00E4FE78227C00FD7BFF7AF1796A7F8012C5
:10F07D00DC489004BB7401F0A37404F0A37493F006
:10F08D00900490E0F9A3E0FAA3E09004BEC912F356
:10F09D00EE9004BBE0F9A3E0FAA3E09004C1C9121D
:10F0AD00F3EE7B007A00792212F5CA9004BBE4F0EE
:10F0BD00A3F0A3F090048D12F3F9F9EA494B601B0C
:10F0CD009004C1E4F0A37400F0A37422F0A3EFF058
:0BF0DD00A37413F0A37488F012EF4D31
:01F0E8002205
:0BF1EA0090048BEBF0A3EAF0A3E9F027
:10F1F500E4A3F0A3F0A3F0900490E0FFC39405749A
:10F20500809480504A90048BE0FBA3E0FAA3E0F9D8
:10F215008F8275830012DC87FFC394304031EFD3B2
:10F225009439502BEFFB7A0090048EE0FEA3E0FFAB
:10F235007C007D0A12DCE8EF2BFFEA3ECF24D0CF1D
:10F2450034FF90048EF0A3EFF0A3E004F080A890C3
:07F25500048EE0FEA3E0FFC0
:01F25C00228F
:10F65900E4FEFDFC900490E0F8A3E0F9A3E0FAA32E
:10F66900E0FBC302DDD8900481E0FBA3E0FAA3E04C
:10F67900F92290047FE0FEA3E0FF22E0FEA3E0F57B
:0FF68900C4EEF5C32274FFF5F012DD1045F02238
:10F4130090049012DE2A000000187F1E12F6594055
:10F423000475C780227F1812F659400475C78122DC
:10F43300E47F1412F65A400475C78222E47F0C124B
:10F44300F65A400475C78322E47F0612F65A400435
:10F4530075C78422E47F0312F65A400475C78522D8
:0FF46300E47F0212F65A400475C7862275C787E8
:01F472002277
:0EF7C600E4F5C7F5C5F5C675C3FF75C4FF228F
:08F7D4008F828E83E493FF2273
:10F7150090048DEEF0A3EFF0A3EDF012F41375C590
:10F725000290048D12F684A3E0F5C275C65A75C61B
:04F73500A502F7C66C
:10F79A0090048BEEF0A3EFF012F41375C5039004F6
:0DF7AA008B12F68475C65A75C6A502F7C607
:10F4730090047FEEF0A3EFF0A3EBF0A3EAF0A3E98F
:10F48300F012F66FEA494B604512F67B12F79A9039
:10F49300048412F68E603712F67BA312F67212DC26
:10F4A3006EFD12F71512F67B12F7D412F66F12DC0B
:10F4B3006EB5071A900480E004F0700690047FE0B4
:0FF4C30004F0900482E475F00112DCFA80C1229B
:10F6140090048DEBF0A3EAF0A3E9F0AD07AC0690FB
:10F62400048D12F672EA494B602A90049012F68E09
:10F6340060220DEDAE0470010C14FF12F7D4900497
:10F644008DE0FBA3E475F00112DD10A9F0FAEF12CE
:05F65400DCB480D622A9
:0FF7B70090000102DC8712DC6EFF7E00640122ED
:10E5C700EFD394057480948040037F012212DC6EA0
:10E5D700FED394037480948040037F0222EF14607B
:10E5E7005B14700302E68114700302E6BF14700324
:10E5F70002E6FD14700302E7372405600302E76FA4
:10E60700EE700812F7B7F45293529412F7BD7008E0
:10E6170012F7B74293F45294EF64024E700712F761
:10E62700B74293429412DC6E6403600302E76F12F1
:10E63700F7B7FFF45293EF429402E76F12DC6E7064
:10E647000812F7B7F45291529212F7BD700812F7F9
:10E65700B74291F45292EF64024E700712F7B74235
:10E6670091429212DC6E6403600302E76F12F7B700
:10E67700FFF45291EF429202E76F12DC6E700812BC
:10E68700F7B7F45295529612F7BD700812F7B742D2
:10E6970095F45296EF64024E700712F7B74295420F
:10E6A7009612DC6E6403600302E76F12F7B7FFF49C
:10E6B7005295EF429602E76F12DC6E700812F7B7B9
:10E6C700F452B152B212F7BD700812F7B742B1F463
:10E6D70052B2EF64024E700712F7B742B142B2125C
:10E6E700DC6E6403600302E76F12F7B7FFF452B101
:10E6F700EF42B202E76F12DC6E700812F7B7F452FE
:10E70700B352B412F7BD700812F7B742B3F452B45C
:10E71700EF64024E700712F7B742B342B412DC6ED1
:10E727006403704412F7B7FFF452B3EF42B4803872
:10E7370012DC6E700812F7B7F452C952CA12F7BD4D
:10E74700700812F7B742C9F452CAEF64024E700755
:10E7570012F7B742C942CA12DC6E6403700A12F795
:0BE76700B7FFF452C9EF42CA7F002246
:10DED3003D3D3D3D3D3D3D3D3D3D3D3D3D3D3D3D6F
:10DEE3003D3D3D3D3D3D3D3D3D3D3D3D3D3D3D3D5F
:10DEF3000D0A2046696C65206E616D653A202573B5
:10DF03000D0A0046696C65206C656E6774683A207B
:10DF1300256442797465730D0A00426F6F746C6FE8
:10DF2300616465722056657273696F6E3A202020B2
:10DF3300323032322D31322D3239206279204C4841
:10DF4300430D0A003D3D3D3D3D3D3D3D3D3D3D3D98
:10DF53003D3D3D3D3D3D3D3D3D3D3D3D3D3D3D3DEE
:10DF63003D3D3D3D0D0A0D0A000D0A2050726573BB
:10DF7300732027642720746F2073746172742E2EAC
:10DF83002E2E2E2E0D0A000D0A2050726F6772611D
:10DF93006D6D696E6720436F6D706C657465642089
:10DFA3005375636365737366756C6C7920210D0A11
:10DFB300000D0A204D43552061626F727420210DBC
:10DFC3000A000D0A20557365722061626F72742016
:10DFD300210D0A000D0A2046696C652073697A6574
:10DFE30020697320746F6F206C6172676520210D47
:10DFF3000A000D0A2050726F6772616D6D696E675A
:10E00300204572726F7220210D0A000D0A206F7471
:10E01300686572206572726F723A202562642E0DF4
:10E023000A000D0A0D0A207374617274206A756DFB
:10E03300702075736572206170705B2523585D2EA7
:10E043002E2E2E2E2E0D0A000D0A0D0A20496C6C61
:10E053006567616C20696E737472756374696F6E42
:10E06300210D0A004E4F204170706C696374696F13
:10E073006E20210D0A000D0A5B253034785D3A20AD
:10E083000025303262582000202020000909002595
:10E0930063000D0A0D0A0047657420636F6D706C91
:10E0A3006574652064617461207061636B61676589
:10E0B3005B2562645D2E0D0A005B66696C65206EEC
:10E0C300616D655D3A2025732C205B66696C652064
:10E0D30073697A655D3A2025642062797465732ECD
:10E0E3000D0A00626F6F74206C6F6164657220614A
:10E0F3006464723A2030782562582030782562585B
:10E10300203078256258202E0D0A007265715F63F6
:10E1130072630972656C5F6372630D0A2523780964
:10E123002523780D0A00737461727409656E64099E
:10E1330073697A65097061636B6574730D0A2523CE
:10E14300780925237809252378092523780D0A00E2
:10E153007374617274207265637620646174612ED6
:10E163000D0A00636D643A202562642E0D0A000DCA
:10E173000A0D0A2057616974696E6720666F722001
:10E183007468652066696C6520746F20626520730E
:10E19300656E74202E2E2E202870726573732027CF
:10E1A300612720746F2061626F7274290D0A004821
:10E1B300616E647368616B65207375636365656421
:10E1C30065642E0D0A0044617461206672616D6599
:10E1D30020726563657074696F6E20636F6D706C18
:10E1E300657465642E0D0A00000000000000000045
:10E1F300000000000000000000000000000000001C
:10E20300000000000000000000000000000000000B
:03E2130000000008
:04D80E004104EC00E5
:10EA5B00C9F0A3EAF0A3E9F0900468E0FBA3E0FAA5
:10EA6B00A3E022A3F090049074FFF0A322900490F3
:10EA7B00F0A3EAF0A3E9F02274E1F07466A3F0EFDF
:10EA8B00A3F07B017A04790A229004C17401F0A3EC
:10EA9B007404F0A3748BF0A37401F0A37413F074DB
:10EAAB0088A3F07B017A04791522900482E02FFF72
:10EABB00900481E03EFEE4FCFD90047DE0F8A3E0D1
:10EACB00F9A3E0FAA3E022F990040802DD26E0FBAB
:10EADB00A3E475F00112DD10A9F0FA229004EDF019
:10EAEB007B017A0479ED900484E4F0A304F07F00B9
:10EAFB007EFE22900488E0FD04F08D827583000277
:10EB0B00DC872426F9E43AFAE4F0A37403F022F943
:10EB1B0090002202DD26900483E0FEA3E0FF22E0BA
:10EB2B00FCA3E0FDA3E0FEA3E0FFEC4D4E4F2290D3
:10EB3B000482E02FFF900481E03EFE90047A229045
:10EB4B000489E0FEA3E0FFC32274FF12DDEBEC4D62
:10EB5B004E4F22900478E0FF3395E0FEEF22F990C0
:10EB6B00002002DD26E4900489F0A3F022F58274E4
:10EB7B00FF3CF58302DC877D017BFF7E0002DC48D6
:10EB8B0090000102DC87FF900485E0FCA3E0FD22EE
:07EB9B00EFFD3395E04D2270
:10F33D00900468EB12EA7B90046812EA664A4B600F
:10F34D005D12EA7074DEF0A374D3F0900468A3A389
:10F35D00E0F9900493EB12EA7B12EAAE12F0671219
:10F36D00EA7074DFF0A37406F090046812EA661276
:10F37D00EB69FF900493E5F0F0EF12EAAC12F06741
:10F38D0012EA7074DFF0A3741D12EAAD12F0671269
:0FF39D00EA7074DFF0A3744712EAAD12F0672232
:08F7DC0074A512EAE702F473C0
:08F7E400745A12EAE702F47303
:10E7720078367C047AE179EB7F2912EB82C2009031
:10E78200045F7401F0A37404F0A37436F0A374015F
:10E79200F0A37400F0A37400F012F4D212F739124D
:10E7A200F75BC2AF90FE00E493645A600302E89BF9
:10E7B20012EA7074DFF0A3746C12EAAD12F067E42F
:10E7C200900466F0A3F012F25D900408E07004A3D6
:10E7D200E06401600302E878900000E06464600392
:10E7E20002E878900466F0A374FAF090046212EAE8
:10E7F200CA90046BC912EA7B90045F12EA66F912AE
:10E80200F0E9900465EFF014602914603114603966
:10E8120024FE60402405704712EA7074DFF0A3748E
:10E822008A12EAAD12F06790045F12EA66F912F3F7
:10E832003D806312EA7074DFF0A374B4803212EA8E
:10E842007074DFF0A374C5802712EA7074DFF0A33E
:10E8520074D7801C12EA7074DFF0A374F580111271
:10E86200EA7074E0F0A3740EF0900465E0900493F3
:10E8720012EAAD12F067900467E004F070069004AB
:10E8820066E004F0C3900467E094B8900466E094F4
:10E892000B500302E7C812F7DC7FFD7ED312F7D4D8
:10E8A200EF3395E0FEEF64024E703B90D3FE93FE91
:10E8B200740193FFE4A907AA069004EEF0A3EAF01C
:10E8C200E912EA6E74E0F0A37425F0900493EEF07E
:10E8D200A3EF12EAAD12F0679004EEA3E0FAA3E010
:10E8E200F912DE5B800F12EA7074E0F0A3744B122F
:10E8F200EAAD12F06712F7E412EA7074E0F0A37462
:0AE902006712EAAD12F06702E7A603
:0BE90C0090047AEB12EA7BA312DE1EDF
:10E9170090047A12EA664A4B700302EA4FA312EB9D
:10E927002A700302EA4FE4A3F0A3F0900481E0FE0B
:10E93700A3E0FF12EAC1FBD312DDD8500302EA3885
:10E9470012EA7074E0F0A37479F0900481E0FFA3F9
:10E95700E0900493CF12EA8912EA5012EB21C39494
:10E9670010EE9400504D12EAB5FBD312DDD8900497
:10E977009074FF401FF0A374E0F0A37484F012EBCF
:10E987002112EB3A12EA66F98F828E8312DC8790A6
:10E9970004938008F0A374E0F0A3748B12EA8C123E
:10E9A700F067900484E004F07006900483E004F0BC
:10E9B70002E96212EA7074E0F0748F12EA8B12EACD
:10E9C7005012EB2112EAB5FBD312DDD8405212EBFD
:10E9D700219410EE9400504812EA7074E0F0A3748A
:10E9E70092F012EB3A12EA66F98F828E8312DC8775
:10E9F700FF24E0FDE434FFFCC3ED945FEC9400508A
:10EA07000280027F2E900493EF12EA8C12F0679037
:10EA17000484E004F07006900483E004F002E9C87F
:10EA2700900482E02410F0900481E03400F002E9C1
:10EA37003290047D12EB2A600F12EA7074E0F0A3A3
:08EA4700749512EA8C12F067CD
:0CEA4F002212F067E4900483F0A3F02290
:0DF52E0090048DEB12EA7BA3ECF0A3EDF04E
:10F53B00E4FDFC90049074FFF5F012DCFAC36480D8
:10F54B009480402B90048D12EAD912DC6E6CFC7BFC
:10F55B0008EC30E70FED25E0FFEC336410FCEF64B3
:10F56B0021FD8007ED25E0FDEC33FCDBE480C4AE30
:03F57B0004AF05D5
:01F57E00226A
:10F25D00E4900408F0A3F0FFFEE59A30E031539AF4
:10F26D00FE900408E0FCA3E02400F58274003CF558
:10F27D0083E59BF0900408E475F00112DCFAFCC301
:10F28D00E5F09408EC940440037F0622E4FEFF0FA2
:10F29D00BF00010EC3EF94F4EE940140BCC3900483
:10F2AD0009E0948C900408E0940050117B017A00E1
:0FF2BD007900E0FEA3E0FFE4FCFD12E90C7F0006
:01F2CC00221F
:10EEB40090047AEB12EA7B90047A12EA664A4B7069
:10EEC400037F092290047A12EA6612EAD2640145A9
:10EED400F0701A12DC6EFE640470037F0B22EE6481
:10EEE40041600712DC6E6461705C7F012212EAD318
:10EEF400FDACF0D39405EC9400501112DC6E641850
:10EF0400704412EB8B6418703D7F0222ED64854CD3
:10EF1400600D12EAD364057004E5F0640470279070
:10EF2400000212DC87F4FF12EB8BFE6F60037F0C90
:10EF34002212EA7074E0F0A3749AF0A3EE12EA8C41
:09EF440012F0677F00227F0C220D
:10F2CD00EF24F5601214601C146032240370559005
:10F2DD00048B7443F0805090048B7406F0E490041A
:10F2ED00ECF0804390048B7415F09004ECE0FF0477
:10F2FD00F0D3EF940574809480402C802790048B7C
:10F30D007418F0E4A3F090048CE0C3940774809417
:10F31D0080500E12EA9412EF4D90048CE004F080B0
:0FF32D00E57F00227F092212EA9412EF4D7F0044
:01F33C0022AE
:07E40F0090047AEB12EA7B96
:10E416009004887403F0E4A3F0A3F090047A12EA5F
:10E42600664A4B6008A312EA664A4B70037F0622CF
:10E4360090047D12EA66F990000312DC8770037F70
:10E44600042212EB7012EB4A9420EE9400503590A1
:10E45600047D12EA66F9900488E0F58212EB076003
:10E466002312EAFEFD90047A12EA66F98F828E8301
:10E47600ED12DCC690048AE004F070C9900489E0CD
:10E4860004F080C17E007F087D007B017A047980DC
:10E4960012DE6112EB70900488E004F090047D12A5
:10E4A600EA66F9900488E0F58212EB07602A12EB1F
:10E4B6004A9408EE9400502012EAFEFD74802FF56F
:10E4C6008274043EF583EDF090048AE004F070CC8B
:10E4D600900489E004F080C47B017A04798012F10B
:10E4E600EA90047A12EA66F9900020EE8FF012DDC7
:10E4F600AB12EA7074E0F0A374BCF090047A12EAEE
:10E50600CA900493C912EA7B90047AE0FBA3A3E0C5
:10E5160012EB69FF900496E5F012EA8912F0679013
:10E52600047A12EA6612EB69C394FDE5F094D340CF
:10E53600087F0D12F2CD7F032290047A12EA6690CC
:10E54600049012EB0DE4FFFE12F61412EA7074E06A
:10E55600F0A374E6F090047A12EA66F990002612A7
:10E56600DC87900493F090002712DC87900494F0E7
:10E5760090002812DC87900495F012EA8D12F0675D
:10E5860012EB7012EB4A94FDEE94D3501312F79AE5
:10E5960090048AE02400F0900489E03402F080E3DD
:10E5A60090047A12EA66F9900022E4F5F012DDABE7
:10E5B600900024E4F5F012DDAB7F0B12F2CD7F0064
:01E5C6002232
:07EE080090046EEB12EA7B9F
:10EE0F0090046E12EA664A4B6008A312EA664A4BF8
:10EE1F0070037F0922E4900474F0A3F07F0A12F2CA
:10EE2F00CD90047612DE2A000007D090047612EB04
:10EE3F0054604F12F25DEF3395E04F60037F06226F
:10EE4F0090047112EA66F912EEB4EFFD3395E0FC0F
:10EE5F004D6007ED64094C60012290047112EA665F
:10EE6F00F912DC6E640170C312EAD3648545F07049
:10EE7F00BA90047DEB12EA7B90046E12EA66F902F7
:10EE8F00E40F900475E004F07006900474E004F051
:10EE9F00C3900475E09420900474E0944E500302E4
:04EEAF00EE2B7F07C0
:01EEB300223C
:10F57F00900495EB12EA7B90049012EACA900498DB
:10F58F00C912EA7B90049512EA664A4B602CA312CB
:10F59F00EA664A4B602490049374FFF5F012DD1075
:10F5AF0045F0601690049812EAD912DC6EFF9004B1
:0AF5BF009512EAD9EF12DCB480DCEB
:01F5C900221F
:07E21600900479EB12EA7B92
:10E21D00A312EA6612EAD224FBFEE5F034FF900465
:10E22D0085F0A3CEF0E92403F9E43AFAA3EB12EA60
:10E23D007B90047912EA664A4B6008A312EA664A9B
:10E24D004B70037F092290047C12EA662403F9E4E3
:10E25D003AFAC002C00190047CA3E0FAA3E012EAEE
:10E26D00D224FBFDE5F034FFFCD001D00212F52ED7
:10E27D00900481EEF0A3EFF090047C12EA6612EAAE
:10E28D00D2FDACF024FE12EB78FE74FF2D12EB786C
:10E29D00FDEDFF900483EEF0EF12EA6E74E1F0A352
:10E2AD00740EF0900481E0FDA3E0900493CDF0A3F3
:10E2BD00EDF0EE12EA8812F067900483E0FEA3E021
:10E2CD00FF900481E06E7003A3E06F60037F062270
:10E2DD0090047912EA66F990002412DD2645F0705B
:10E2ED005690048712EACAC912EA78A312EB137B7F
:10E2FD00017A04798A12F57F90047912EA66242650
:10E30D00F9E43AFAEB12EA78A312EB1390048712B0
:10E31D00EA66F912F57F90047912EA662426F9E48B
:10E32D003AFA9004907401F0A37404F0A3748AF087
:10E33D00A312EB1312F57F90047912EA6612EB1A11
:10E34D00FF90047FE5F0F0A3EFF090048712EA66EA
:10E35D00F9EA494B606090047912EA6612EB1A12E1
:10E36D00EB91900480E02DFD90047FE03CFCC3EF29
:10E37D009DE5F09C504012EB1BFFAEF09004871210
:10E38D00EA66F912DC6EFD12F71590047912EA6651
:10E39D0012EB1AC394FDE5F094D340037F05229050
:10E3AD000022E475F00112DD5E900488E475F00141
:10E3BD0012DCFA02E35712EA7074E1F0A37429F04B
:10E3CD0090047912EA6612EB1A12EB91C3EF9DFEDF
:10E3DD00E5F09C900493F0A3CEF012EB1BFF90049C
:10E3ED0095E5F0F0A3EFF0A3ECF0A3EDF090002491
:10E3FD0012DD26FF900499E5F012EA8912F0677F8D
:01E40D00000E
:01E40E0022EB
:07EBA20090046EEB12EA7B08
:10EBA90090047412DE2A000027C090046E12EA66EF
:10EBB9004A4B6008A312EA664A4B70037F09227F19
:10EBC9000A12F2CD12EA7074E1F0A3745312EA8CBE
:10EBD90012F06790047412EB54700302EC9012F275
:10EBE9005DEF3395E04F60037F062290047112EACE
:10EBF9006612EAD245F060DB12EEB4900478EF12A7
:10EC0900EA6F12EA8312F067900478E0FD3395E029
:10EC1900FCED640B4C7002FF22ED640C4C700A7F12
:10EC29000C12F2CD900478EFF0900478E0FFFD33F8
:10EC390095E0FCED4C60012290047112EACA90043F
:10EC49007CC912EA7B90046E12EA66F912E2161286
:10EC5900EB9B60012290047412DE2A000027C09009
:10EC6900047812EB614E7003740BF0900478E0FFA6
:10EC790012F2CD90046E12EA66F9900024E475F060
:09EC89000112DD5E02EBDC7F07E5
:01EC9200225F
:10F69800900479EB12EA7B90047912EA664A4B608F
:10F6A80008A312EA664A4B70037F09229004791274
:10F6B800EA6690048412EB0D7FFD7ED312F4737F0B
:02F6C80000221E
:07EC930090046EEB12EA7B16
:10EC9A0090047412DE2A000027C090046E12EA66FD
:10ECAA004A4B6008A312EA664A4B70037F09229016
:10ECBA00047112EACA90047CC912EA7B90046E12AB
:10ECCA00EA66F912F698EF3395E04F60037F09225E
:10ECDA007F0C12F2CD90047412EB54607012F25D44
:10ECEA00EF3395E04F60037F062290047112EA66C3
:10ECFA0012EAD245F060DE12EEB4900478EF12EA1E
:10ED0A006F12EA8312F06712EB5E640B4E70167F85
:10ED1A000B12F2CD7F0A12F2CD90047412DE2A0091
:10ED2A000027C080B012EB5E4E6007EF640C4E60A5
:10ED3A00012290047112EA66F912DC6E6401709580
:0FED4A0012EB8B70907F0B12F2CD7F00227F07B0
:01ED59002297
:04F0E900900468EB3C
:10F0ED0012EA5C4A4B6008A312EA664A4B70037F32
:10F0FD00092212EA7074E1F0A3747212EAAD12F1F2
:10F10D006312EACA90047112EA5BF912EE0812EB6F
:10F11D009B60012212EA7074E1F0A374B212EA8CC2
:10F12D0012F16312EACA90047112EA5BF912EBA2B2
:10F13D0012EB9B60012212EA7074E1F0A374C91204
:10F14D00EA8C12F06790046B12EACA90047112EA0D
:05F15D005BF912EC93C8
:08F162002212F06790046B22F9
:10F4D20078687C047AE279147F0212EB82E4F5A266
:10F4E2009004687403F0A37480F07B017A04796855
:10F4F200E4FF12F521FF12F50A7F0112F5217F03C5
:08F5020012F50A7F0302E5C7C0
:10F50A007A04796812E5C79004687403F0A314F0CA
:10F51A007B017A0479682212E5C7E4900468F0A3B3
:04F52A0004F0FB22CC
:0300000002EFDB31
:0CEFDB00787FE4F6D8FD7581A102F022D9
:10DB7800E709F608DFFA8046E709F208DFFA803E8F
:10DB880088828C83E709F0A3DFFA8032E309F6087C
:10DB9800DFFA8078E309F208DFFA807088828C83E4
:10DBA800E309F0A3DFFA806489828A83E0A3F60898
:10DBB800DFFA805889828A83E0A3F208DFFA804C72
:10DBC80080D280FA80C680D4806980F28033801049
:10DBD80080A680EA809A80A880DA80E280CA8033B2
:10DBE80089828A83ECFAE493A3C8C582C8CCC5832A
:10DBF800CCF0A3C8C582C8CCC583CCDFE9DEE780FA
:10DC08000D89828A83E493A3F608DFF9ECFAA9F078
:10DC1800EDFB2289828A83ECFAE0A3C8C582C8CCCE
:10DC2800C583CCF0A3C8C582C8CCC583CCDFEADEE7
:10DC3800E880DB89828A83E493A3F208DFF980CC49
:10DC480088F0EF60010E4E60C388F0ED2402B40442
:10DC58000050B9F582EB2402B4040050AF232345E9
:06DC6800822390DBC8736B
:10DC6E00BB010689828A83E0225002E722BBFE02B4
:09DC7E00E32289828A83E49322E7
:10DC8700BB010CE58229F582E5833AF583E0225052
:10DC970006E92582F8E622BBFE06E92582F8E2229C
:0DDCA700E58229F582E5833AF583E49322B6
:10DCB400BB010689828A83F0225002F722BBFE014F
:02DCC400F32249
:10DCC600F8BB010DE58229F582E5833AF583E8F094
:10DCD600225006E92582C8F622BBFE05E92582C840
:02DCE600F22228
:10DCE800EF8DF0A4A8F0CF8CF0A428CE8DF0A42E50
:02DCF800FE220A
:10DCFA00C5F0F8A3E028F0C5F0F8E58215827002B5
:06DD0A001583E038F02251
:10DD1000A3F8E0C5F025F0F0E582158270021583C6
:06DD2000E0C838F0E82223
:10DD2600BB0110E58229F582E5833AF583E0F5F03B
:10DD3600A3E0225009E92582F886F008E622BBFE18
:10DD46000AE92582F8E2F5F008E222E5832AF5835E
:08DD5600E993F5F0A3E9932223
:10DD5E00BB010DC58229C582C5833AC58302DCFA93
:10DD6E005011C58229F808E5F026F618F5F0E5827F
:10DD7E0036F622BBFE11C58229F808E225F0F5F031
:10DD8E00F218E23582F222F8E58229F582E5832A3D
:0DDD9E00F58374019325F0F5F0E49338222D
:10DDAB00F8BB0111E58229F582E5833AF583E8F0AA
:10DDBB00E5F0A3F0225009E92582C8F608A6F02267
:0DDDCB00BBFE09E92582C8F2E5F008F2224E
:10DDD800EB9FF5F0EA9E42F0E99D42F0E89C45F0A1
:01DDE8002218
:10DDE9007401FF3395E0FEFDFCA3A3A3E02FFFF030
:10DDF900E582158270021583E03EFEF0E582158208
:10DE090070021583E03DFDF0E582158270021583ED
:05DE1900E03CFCF022DA
:0CDE1E00ECF0A3EDF0A3EEF0A3EFF02277
:10DE2A00A8828583F0D083D08212DE4112DE4112AD
:10DE3A00DE4112DE41E473E493A3C583C5F0C583D2
:10DE4A00C8C582C8F0A3C583C5F0C583C8C582C842
:01DE5A0022A5
:06DE5B008A838982E47352
:10DE6100EF4E6012EF60010EEDBB010B89828A83D8
:10DE7100F0A3DFFCDEFA2289F05007F709DFFCA9E5
:0CDE8100F022BBFEFCF309DFFCA9F0223C
:10F5CA009004BEE0FFA3E0FEA3E0CF9004C7F0A33F
:10F5DA00EEF0A3EFF09004C1E0CBF0A3E0CAF0A3F1
:10F5EA00E0C9F07F229004CAAD82AC8312DC6E8D32
:10F5FA00828C83F0A309E970010ADFEC9004C1E070
:0AF60A00FBA3E0FAA3E0F902D878B0
:10EFE70002E772E493A3F8E493A34003F68001F2E7
:10EFF70008DFF48029E493A3F85407240CC8C3332B
:10F00700C4540F4420C8834004F456800146F6DFF9
:10F01700E4800B010204081020408090D400E47EB5
:10F02700019360BCA3FF543F30E509541FFEE493EE
:10F03700A360010ECF54C025E060A840B8E493A3B5
:10F04700FAE493A3F8E493A3C8C582C8CAC583CAE0
:10F05700F0A3C8C582C8CAC583CADFE9DEE780BE98
:01D812000015
:10D81300E50824C7F582E43404F583E00508229083
:10D8230004C43008039004C7E475F00112DE8D02CE
:10D83300DC6E2001E97F2ED2018018EF540F249073
:10D84300D43440D4FF30050BEF24BFB41A00500387
:10D853002461FFE50960021509050CE50C7002055A
:10D863000B30080E9004C4E475F00112DE8DEF0254
:10D87300DCB402F6CA7403D2088003E4C208F508D4
:10D883009004C412DEA4E4F509F50BF50CE5096078
:10D89300077F2012D85680F5750AFFC202C201C263
:10D8A30003C204C206C207C20912D822FF700D3098
:10D8B30008057F0012D867AF0CAE0B22B4255FC2F8
:10D8C300D5C20512D822FF24D0B40A00501A75F02D
:10D8D3000A780930D50508B6FF0106C6A426F62046
:10D8E300D5047002D20480D924CFB41A00EF5004B7
:10D8F300C2E5D20502DA68D20280C6D20180C0D264
:10D903000380BCD2D580BAD20680B47F2012D85609
:10D913002003077401B5090040F112D813FF12D890
:10D923005602D890D209D207809512D813FB12D889
:10D9330013FA12D813F94A4B700679397ADB7BFF55
:10D9430020032EE509602A7E008E8275830012DC97
:10D953008760060EEE650A70F0C2D5EBC0E0EAC040
:10D96300E0E9C0E0EE12DAAFD0E0F9D0E0FAD0E0BF
:10D97300FB12DC6EFF60AAEBC0E0EAC0E0E9C0E0A6
:10D9830012D856D0E02401F9D0E03400FAD0E0FBFD
:10D99300E50A0460DCD50AD980877BFF7ADA79ABA4
:10D9A300D203809C791080027908C207C2098008DB
:10D9B300D2D5790A8004790AC2D5E50A047002F542
:10D9C3000AE4FAFDFEFF12D813FC7B0820021312AF
:10D9D300D813FD7B1030010A12D813FE12D813FF9F
:10D9E3007B20EC3382D592D55013C3E43001069FDC
:10D9F300FFE49EFEE42002039DFDE49CFCE4CBF8DF
:10DA0300C202EC700CCFCECDCCE824F8F870F380D2
:10DA130017C3EF33FFEE33FEED33FDEC33FCEB3393
:10DA2300FB994002FB0FD8E9EB300205F8D0E0C4C4
:10DA330048B202C0E00AEC4D4E4F78207B0070C222
:10DA4300EAB50A0040BCC0E012DAB1D0F0D0E02061
:10DA53000204C4C0E0C4B202C0F012D83FD0F0D573
:10DA6300F0EB02D89012DEADD92D53D9A758D8FECA
:10DA73004CD8FA42D9AB4FD9B344D9B349D913439C
:08DA8300D9B955D99D46D99D82
:10DA8B0045D99D47DB5950D9022DD9062ED9292BC3
:10DA9B00D90A23D92720DB422AD8C2480000D92132
:10DAAB003F3F3F00790AA2D5200414300609B91074
:10DABB00020404B9080104A2D52007025001042076
:10DACB0003689203B509005034C0E07F203004197D
:10DADB007F30A20372077206500F12DB08C203C21B
:10DAEB0007C206C2097F30800F300603E9C0E0127F
:10DAFB00D856300603D0E0F9D0E0B509CC30061784
:10DB0B007F30B9100C12D8567F583005077F7880BC
:10DB1B0003B9080312D8563003057F2D02D8567F60
:10DB2B00202009F87F2B2007F322920380CF286E49
:10DB3B00756C6C2900D20212D8133002F8C202782D
:10DB4B000930D50108F602D8C22D5043495812D8D6
:10DB5B00132403B405004001E490DB549312D8471F
:0DDB6B00743A12D847D20475090402D9A7F4
:10DE8D00F8E0FBA3A3E0F925F0F0E582158270021E
:07DE9D001583E0FA38F022C2
:09DEA400EBF0A3EAF0A3E9F0227F
:10DEAD00D083D082F8E4937012740193700DA3A304
:10DEBD0093F8740193F5828883E473740293686018
:06DECD00EFA3A3A380DF18
:10F6CA00EFB40A07740D12F6D5740A309811A89986
:10F6DA00B8130CC2983098FDA899C298B811F630A0
:07F6EA0099FDC299F5992278
:00000001FF
