:10D9D4000000000000000000000000000000000043
:10D9E4000000000000000000000000000000000033
:10D9F4000000000000000000000000000000000023
:10DA04000000000000000000000000000000000012
:10DA14000000000000000000000000000000000002
:10DA240000000000000000000000000000000000F2
:10DA340000000000000000000000000000000000E2
:10DA440000000000000000000000000000000000D2
:02DA54000000D0
:10DF7200900254E0FBA3E475F00112C964A9F0FA1F
:10DF820002C8F690025874FFF5F012C94E45F0220D
:10DF9200900210E0FBA3E0FAA3E022EBF0A3EAF088
:0EDFA200A3E9F022E4900213F0A304F0FB22A6
:10DFB00090028A7402F0A37410F0E4A3F0A374FF3B
:10DFC000F0A374CCF0A3E04401F0A37401F0A374B7
:10DFD00014F09002937401F0A374FEF07B017A02B6
:05DFE000798A02D699C8
:06D6990090021012DF9D5B
:10D69F0078137C027D017BFF7AD979D47E007F02DB
:10D6AF0012C8D012DF92F912C8F624FE605A046035
:10D6BF000302D75E90000112C90FF5989000021275
:10D6CF00C90F428990000312C97AAEF0F58BEEF5BF
:10D6DF008D90000512C90F13928E90000712C90F7B
:10D6EF00428E90000912C90F52B890000A12C90F4A
:10D6FF0052B790000612C90F24FF92AC12DFA67F1B
:10D70F000312D75F7F03804412DF92F9900001125A
:10D71F00C90FF59A90000312C97AAEF0F5D7EEF55E
:10D72F00D690000712C90F428E90000612C90F54EF
:10D73F0001F5AF90000912C90F52B590000A12C936
:0FD74F000F52B612DFA6FF12D75F7F0112D1294A
:10D75E00227A02791312D1299002137403F0A314C2
:08D76E00F07B017A027913221D
:10D8BE0090025112DF9D90025112DF954A4B700378
:10D8CE0002D951900257E0607A900257E0FF14F0AF
:10D8DE00EF607090025112DF95F912C8F624FE60C7
:10D8EE0023146035146047240370DE12DF72F5993D
:10D8FE0020990512DF8570F8A299E43354FE24FFB7
:10D90E00929980C512DF72F59BE59A20E10512DF30
:10D91E008570F6539AFD02D8D712DF72F5ADE5ACDD
:10D92E0020E10512DF8570F653ACFD02D8D712DF69
:10D93E0072F585E58420E10512DF8570F65384FDCE
:04D94E0002D8D72202
:06D9520090022012DF9D8F
:10D95800E4FE78227C00FD7BFF7AD979D67F80129D
:10D96800C8D090024E7401F0A37402F0A37426F09C
:10D97800900223E0F9A3E0FAA3E0900251C912DF74
:10D988009E90024EE0F9A3E0FAA3E0900254C91277
:10D99800DF9E7B007A00792212DE6090024EE4F06E
:10D9A800A3F0A3F090022012DF95F9EA494B601B1F
:10D9B800900254E4F0A37400F0A37422F0A3EFF0F3
:0BD9C800A37413F0A37488F012D8BE03
:01D9D3002231
:10DF3300E4FEFDFC90021AE0F8A3E0F9A3E0FAA3E3
:10DF4300E0FBC302CA80900212E0FBA3E0FAA3E065
:10DF5300F922900210E0FEA3E0FF22E0FEA3E0F529
:0FDF6300C4EEF5C32274FFF5F012C96445F02235
:10DBAA0090021A12CAC3000000187F1E12DF334007
:10DBBA000475C780227F1812DF33400475C781229B
:10DBCA00E47F1412DF34400475C78222E47F0C120A
:10DBDA00DF34400475C78322E47F0612DF34400431
:10DBEA0075C78422E47F0312DF34400475C7852297
:0FDBFA00E47F0212DF34400475C7862275C787A7
:01DC090022F8
:0EE12C00E4F5C7F5C5F5C675C3FF75C4FF223F
:08E178008F828E83E493FF22E5
:10E05A00900217EEF0A3EFF0A3EDF012DBAA75C55C
:10E06A000290021712DF5EA3E0F5C275C65A75C6A2
:04E07A00A502E12CEE
:10E09D00900217EEF0A3EFF012DBAA75C503900204
:0DE0AD001712DF5E75C65A75C6A502E12C7C
:10DC6A00900210EEF0A3EFF0A3EBF0A3EAF0A3E921
:10DC7A00F012DF49EA494B604512DF5512E09D90E8
:10DC8A00021512DF68603712DF55A312DF4C12C883
:10DC9A00F6FD12E05A12DF5512E17812DF4912C876
:10DCAA00F6B5071A900211E004F07006900210E02F
:0FDCBA0004F0900213E475F00112C94E80C122EC
:10DEAA00900212EBF0A3EAF0A3E9F0AD07AC0690FA
:10DEBA00021212DF4CEA494B602A90021512DF68FF
:10DECA0060220DEDAE0470010C14FF12E17890028D
:10DEDA0012E0FBA3E475F00112C964A9F0FAEF128B
:05DEEA00C93C80D622B6
:0FE10E0090000102C90F12C8F6FF7E00640122C3
:10D12900EFD394057480948040037F012212C8F6DE
:10D13900FED394037480948040037F0222EF14602D
:10D149005B14700302D1E314700302D2211470033B
:10D1590002D25F14700302D2992405600302D2D16E
:10D16900EE700812E10EF45293529412E114700811
:10D1790012E10E4293F45294EF64024E700712E1E9
:10D189000E4293429412C8F66403600302D2D1128C
:10D19900E10EFFF45293EF429402D2D112C8F67015
:10D1A9000812E10EF45291529212E114700812E140
:10D1B9000E4291F45292EF64024E700712E10E4250
:10D1C90091429212C8F66403600302D2D112E10EB1
:10D1D900FFF45291EF429202D2D112C8F6700812AE
:10D1E900E10EF45295529612E114700812E10E42C2
:10D1F90095F45296EF64024E700712E10E42954281
:10D209009612C8F66403600302D2D112E10EFFF44C
:10D219005295EF429602D2D112C8F6700812E10E69
:10D22900F452B152B212E114700812E10E42B1F493
:10D2390052B2EF64024E700712E10E42B142B212CD
:10D24900C8F66403600302D2D112E10EFFF452B1B1
:10D25900EF42B202D2D112C8F6700812E10EF452AE
:10D26900B352B412E114700812E10E42B3F452B48D
:10D27900EF64024E700712E10E42B342B412C8F6CF
:10D289006403704412E10EFFF452B3EF42B48038E4
:10D2990012C8F6700812E10EF452C952CA12E1140A
:10D2A900700812E10E42C9F452CAEF64024E7007C7
:10D2B90012E10E42C942CA12C8F66403700A12E1A9
:0BD2C9000EFFF452C9EF42CA7F0022A2
:10D581000D0A5B253034785D3A200025303262582F
:10D591002000202020000909002563000D0A0D0A42
:10D5A1000053504920464C4153482049443A2025D4
:10D5B10023782E0D0A006F74615F666C61670966DE
:10D5C100696C655F73697A650D0A252378090925F8
:10D5D10023580D0A0020737461727420657261739F
:10D5E100652E2E2E0D0A00626F6F74206C6F6164C0
:10D5F100657220616464723A203078256258203067
:10D6010078256258203078256258202E0D0A007244
:10D611006174653A202530326425250808080D001B
:10D621000D0A50726F6772616D6D696E6720636F6D
:10D631006D706C657465642E0D0A0073746172748B
:10D64100206A756D702075736572206170705B253D
:10D6510023585D2E2E2E2E2E2E0D0A00696C6C6520
:10D6610067616C20696E737472756374696F6E2182
:10D671000D0A006E6F206170706C696374696F6E62
:10D6810020210D0A00000000000000000000000041
:08D691000000009002000001FE
:10D776007B017A027910E4F0A37404F07D017F0046
:10D786007E007C0022900226F0EFA3F07B017A0255
:10D79600798A22A3F090022374FFF0A32290029DBF
:10D7A600E02FFF90029CE03EFEE4FCFD900298E034
:10D7B600F8A3E0F9A3E0FAA3E0FBD302CA807D0157
:10D7C6007BFF7E007F0402C8D090029DE02FFF9071
:10D7D600029CE03EFE900295E0FBA3E0FAA3E0F98E
:10D7E6008F828E8302C90F90029EE0FEA3E0FF2285
:10D7F600900209E0FEA3E0FF22E0FCA3E0FDA3E027
:10D80600FEA3E0FFEC4D4E4F227B017A0079002209
:09D816007D017BFF7E0002C8D0F9
:10DEEF0078107C027AD6798612D7C490021B12D78B
:10DEFF007612DC0A900210E0B45A28A3E0B4A523EE
:10DF0F0090021074A5F0A3745AF090021812CAC3AD
:10DF1F000000000412D78212D2D490021B12D776BF
:03DF2F0012DB45BD
:01DF320022CC
:10DDC50078107C027AD6798A12D7C47B017A0279D7
:10DDD5001090021B12D77C12DC0A900210E0B4A549
:10DDE5002EA3E0B45A29900210745AF0A374A5F03A
:10DDF50090021812CAC30000000412D78212D2D4AE
:0FDE05007B017A02791090021B12D77C12DB4549
:01DE140022EB
:0FD45200900295EBF0A3EAF0A3E9F0A312CAB79A
:10D46100900295E0FBA3E0FAA3E04A4B700302D5DA
:10D4710075A312D7FF700302D575E4A3F0A3F09052
:10D48100029CE0FEA3E0FF12D7AF500302D55E126B
:10D49100D79B74D5F0A37481F090029CE0FFA3E0C8
:10D4A100CF12D78B12D57612D7EDC39410EE94001C
:10D4B100503D12D7A390022374FF4014F0A374D5FA
:10D4C100F0A3748CF012D7ED12D7CF90022680080A
:10D4D100F0A374D5F0A3749312D79112D95290028C
:10D4E1009FE004F0700690029EE004F002D4A812BE
:10D4F100D79B74D5F0749712D79012D57612D7EDC9
:10D5010012D7A3404712D7ED9410EE9400503D126C
:10D51100D79B74D5F0A3749AF012D7CFFF24E0FD06
:10D52100E434FFFCC3ED945FEC9400500280027F71
:10D531002E900226EF12D79112D95290029FE00449
:10D54100F0700690029EE004F002D4FE90029DE08D
:10D551002410F090029CE03400F002D480900298F4
:10D5610012D7FF600F12D79B74D5F0A3749D12D709
:04D571009112D952E8
:0CD575002212D952E490029EF0A3F02292
:0EE11D0000007FFF7EC17D80DDFEDEFCDFFAAC
:01E12B0022D1
:10CED20078037C027AD6798E7F0212D81678057C86
:0CCEE200027D017BFF7AD6799012D7C840
:10CEEE00780B7C027AD679947F0512D816900203BD
:10CEFE007403F0742C12D11B9002037401F07410A1
:10CF0E0012D11B7F0112E13A7B017A02790B12DA00
:01CF1E00D83A
:10CF1F0012DFB0C2AF12DD74900226EEF0EF12D71F
:10CF2F009974D5F0A374A202D07B7B017A027905A4
:10CF3F0090021B12D77C12DC0A12D79B74D5F0A378
:10CF4F0074B7F0900205E0FFA3E0900226CFF0A3A4
:10CF5F00EFF0900207E0FFA3E0900228CF12D78EE8
:10CF6F0012D952900207E07002A3E0700302D0843E
:10CF7F00900205E0645A7004A3E064A5600302D038
:10CF8F008412D79B74D5F0A374D612D79112D952AD
:10CF9F00E4900209F0A3F0900207E0FEA3E0FFA3E4
:10CFAF00E0FCA3E0FDC39FEC9E400302D06FC3EDF6
:10CFBF0094FDEC94C5400302D06F12D80F12D7F630
:10CFCF00E4FCFD90021B7402F0A3E4F012DC0A12E1
:10CFDF00D7F64E703512D80F900215F0A37403F0E8
:10CFEF0012DEAA12D79B74D5F0A374E8F09000005C
:10CFFF00E0900226F0900001E0900227F0900002EE
:10D00F00E090022812D79112D95212D7F612D80FE8
:10D01F009002157402F0A3E4F012DC6A12D79B742D
:10D02F00D6F0A37410F012D7F67C007D6412CAFA02
:10D03F00C006C007900207E0FEA3E0FBAA06E4F9D2
:10D04F00F8D007D00612C9EEEE12D78B12D9529034
:10D05F00020AE02400F0900209E03402F002CFA6A9
:10D06F0012DEEF12D79B74D6F0A3742112D7911250
:10D07F00D95202CF3912D80F90021BE4F0A37403D8
:10D08F00F07D0012D78412DC0A900205E064A570CF
:10D09F0004A3E0645A7046900000E06402703EA35F
:10D0AF00E0FEA3E0FDEDFFE4A907AA06900200F061
:10D0BF00A3EAF0E912D79974D6F0A3743CF090006C
:10D0CF0001E0FEEDFF900226EE12D78E12D952909C
:10D0DF000200A3E0FAA3E0F912CAF4800F12D79B63
:10D0EF0074D6F0A3745D12D79112D952900000E05C
:10D0FF006402700312DDC512D79B74D6F0A374744B
:0CD10F0012D79112D95212E11D02CF3943
:0ED11B00A3F07B017A0279037F0212D1292250
:0BE16D00900210E0FBA3E0FAA3E02208
:10DAD800900210EBF0A3EAF0A3E9F012E16D4A4BD3
:10DAE800605AE4F5CF75CDC012E16DF912C8F6FFA2
:10DAF800E5CE546F4FF5CE90000112C90FFFE5CE69
:10DB080054FC4FF5CE90000212C90F25E025E0FF26
:10DB1800E5CE54F34FF5CE90000312C90FC4335429
:10DB2800E0FFE5CE54DF4FF5CE90000412C90FC4D4
:0DDB3800333354C0FFE5CE54BF4FF5CE226D
:10E0D3008FCFED1DAE0470011C4E6008E5CD30E717
:05E0E300F175CDC02223
:10E0E800EF1FAC0670011E4C6008E5CD30E7F175F6
:05E0F800CDC0AFCF22F6
:0EE13A00EF25E025E0FFE5A254F34FF5A22209
:10DE150036344B420933324B4209344B42093235D1
:10DE250036420D0A25626409256264092562640982
:10DE35002562640D0A006E65787420616464723A27
:10DE4500202523580D0A0090000000030000000261
:0BDE55000000002000000000000000A2
:10D81F00900214E0FCA3E0FDA3E0FEA3E02290023F
:10D82F00A012CAB79002A0E0F8A3E0F9A3E0FAA310
:10D83F00E0FB22D20090022E74FFF0227D017BFFCD
:10D84F007E007F0402C8D0FEE43DFDE43CFC900264
:10D85F001402CAB7EBF0A3EAF0A3E9F0A322EFF0AA
:10D86F00900218A3A3E0FEA3E0FF227B017D047CBE
:10D87F000022E0FBA3E475F00112C964A9F0FA22BB
:10D88F00FF781002CA91C2A2C20090022E22FEE4BB
:10D89F0033FDE433FC02CA9174FFF5F012C96445FD
:0FD8AF00F022FF780802CA917B017D047C0022E1
:0CE14800EF25E025E0FF7EE1DEFEDFFCBD
:01E1540022A8
:10E0BA0090022EE0FF7DC87C0012E0D33000077F7B
:09E0CA00C87E0002E0E87FFF229D
:10DFE50090022912D863ECF0A3EDF090022C12D820
:10DFF500A76014C20090022912D88112C8F69002B7
:08E005002EF012E0BA80E422C3
:10E0340090022112D863ECF0A3EDF090022412D8E0
:10E04400A7601212D84212E0BA90022112D881EFCE
:06E0540012C93C80E62227
:0CE1550012D8957406F012E0BAD2A22293
:10E07E00EFFD64056008ED643560037FFF2212D862
:0EE08E0095EFF012E0BA12D84212E0BAD2A218
:01E09C002261
:10E0FD007F0512E07EEF30E0077F0212E14880F0ED
:01E10D0022EF
:10DD7400E4900210F0A3F078127C027D017BFF7A1C
:10DD8400DE794CFE7F0412C8D0C2A27A0279121244
:10DD9400D87A12DFE512D84212E0BAEFFE900210F0
:10DDA400E04EF0A3E0F012D84212E0BA900210E084
:10DDB400FEA3E04FFF900210EEF0FEA3EFF0D2A21C
:01DDC400223C
:10DA56009002A012CAC30000000012D895749FF06D
:10DA660012E0BA12D84212E0BAE4FCFDFE781012B7
:10DA7600CAA412D82DC000C001C002C00312D842E9
:10DA860012E0BAE4FCFDFE780812CAA4D003D00264
:10DA9600D001D000EB4FFFEA4EFEE94DFDE84CFC0D
:10DAA60012D82DC000C001C002C00312D84212E035
:10DAB600BAD003D002D001D000EB4FFFEAFEE9FD59
:10DAC600E8FC9002A012CAB7D2A29002A012D822F5
:01DAD600FF50
:01DAD700222C
:09DC0A0090021412D86312CAB78B
:10DC1300781D7C027ADE795012D84B90021712D805
:10DC23002212D88F90021EEFF090021712D8221200
:10DC3300D8B190021FEFF0900217A3A3A3E09002C4
:10DC430020F0C2A27A02791D12D87A12DFE590027F
:10DC530014E0FBA3E0FAA3E0F990021BE0FCA3E0CD
:06DC6300FD12E034D2A224
:01DC69002298
:09DB450090021412D86312CAB751
:10DB4E00781D7C027ADE795412D84B90021712D8C7
:10DB5E002212D88F90021EEFF090021712D82212C6
:10DB6E00D8B190021FEFF0900217A3A3A3E090028A
:10DB7E0020F012E155C2A27A02791D12D8B712DF37
:10DB8E00E5900214E0FBA3E0FAA3E0F990021BE09B
:0CDB9E00FCA3E0FD12DFE5D2A202E0FDD6
:06DD210090022012CAB7B7
:10DD270078247C027D017BFF7ADE795812D84F90E8
:10DD3700022012D82212D88F900225EFF0900220ED
:10DD470012D82212D8B1900226EFF0900220A3A396
:10DD5700A3E0900227F012E15512E0FDC2A27A0279
:0DDD6700792412D8B712DFE5D2A202E0FD48
:06DCC90090022012CAB710
:10DCCF0078257C027D017BFF7ADE795C12D84FE4E8
:10DCDF00FFFE7D80FC90022012D836D312CA8050EE
:10DCEF0030900224E0A3F090022012D822FF90027D
:10DCFF0026EFF0A3F0A3F012E15512E0FDC2A27BD4
:10DD0F00017A0279257D047C0012DFE5D2A212E0B0
:01DD1F00FD06
:01DD200022E0
:03D2D40012D85D10
:10D2D70090021812D82212D88FA312D86DE4FDFC41
:10D2E700780F12CA9190021D12D86DEE547FFEEF8F
:10D2F70024FFFFEE340F780C12D89D90021E12D82F
:10D307006DEE540FFEEF24FFFFE43E780812D89D20
:10D3170090021FEFF0E4FFFE7D80FC90021412D80C
:10D3270036D312CA80400302D42890021812D8229A
:10D33700FF900214E0F8A3A3A3E02FFFEA3EFEE963
:10D347003DFDE83CFCE4FBFA7980F8C312CA805043
:10D357000302D42890022374FFF0A374DEF0A374B1
:10D3670015F090021CE0900226F090021DE090025A
:10D3770027F090021EE0900228F090021FE0900232
:10D3870029F0790012D95290021CE0FF14F0EF60E7
:10D397001E12D81FFF90022474D8F012DCC912D8CD
:10D3A7001F2400FFE43EFEED340112D85980D81245
:10D3B700D42990021DE0FF14F0EF601B12D81FFF65
:10D3C7009002247452F012DCC912D81F2400FFEE19
:10D3D700348012D85680DB12D42990021EE0FF1445
:10D3E700F0EF601512D81FFF12DD2112D81F24009D
:10D3F700FFEE341012D85680E190022374FFF0A399
:10D4070074DEF0A3743BF0900214A3A3E0FFA3E043
:10D41700900226CFF0A3EFF07B007A00790012D9B3
:01D4270052B2
:10D428002290022374FFF0A374DEF0A3743BF09003
:10D438000214A3A3E0FFA3E0900226CFF0A3EFF02D
:0AD448007B007A00790012D952220D
:0300000002E161B9
:0CE16100787FE4F6D8FD7581A102CED2D3
:10C80000E709F608DFFA8046E709F208DFFA803E1A
:10C8100088828C83E709F0A3DFFA8032E309F60807
:10C82000DFFA8078E309F208DFFA807088828C836F
:10C83000E309F0A3DFFA806489828A83E0A3F60823
:10C84000DFFA805889828A83E0A3F208DFFA804CFD
:10C8500080D280FA80C680D4806980F280338010D4
:10C8600080A680EA809A80A880DA80E280CA80333D
:10C8700089828A83ECFAE493A3C8C582C8CCC583B5
:10C88000CCF0A3C8C582C8CCC583CCDFE9DEE78085
:10C890000D89828A83E493A3F608DFF9ECFAA9F004
:10C8A000EDFB2289828A83ECFAE0A3C8C582C8CC5A
:10C8B000C583CCF0A3C8C582C8CCC583CCDFEADE73
:10C8C000E880DB89828A83E493A3F208DFF980CCD5
:10C8D00088F0EF60010E4E60C388F0ED2402B404CE
:10C8E0000050B9F582EB2402B4040050AF23234575
:06C8F000822390C8507382
:10C8F600BB010689828A83E0225002E722BBFE0240
:09C90600E32289828A83E4932272
:10C90F00BB010CE58229F582E5833AF583E02250DD
:10C91F0006E92582F8E622BBFE06E92582F8E22227
:0DC92F00E58229F582E5833AF583E4932241
:10C93C00BB010689828A83F0225002F722BBFE01DA
:02C94C00F322D4
:10C94E00C5F0F8A3E028F0C5F0F8E5821582700274
:06C95E001583E038F02211
:10C96400A3F8E0C5F025F0F0E58215827002158386
:06C97400E0C838F0E822E3
:10C97A00BB0110E58229F582E5833AF583E0F5F0FB
:10C98A00A3E0225009E92582F886F008E622BBFED8
:10C99A000AE92582F8E2F5F008E222E5832AF5831E
:08C9AA00E993F5F0A3E99322E3
:10C9B20075F008758200EF2FFFEE33FECD33CDCC3C
:10C9C20033CCC58233C5829BED9AEC99E5829840BF
:10C9D2000CF582EE9BFEED9AFDEC99FC0FD5F0D69C
:10C9E200E4CEFBE4CDFAE4CCF9A88222B800C1B9C6
:10C9F2000059BA002DEC8BF084CFCECDFCE5F0CB04
:10CA0200F97818EF2FFFEE33FEED33FDEC33FCEB3C
:10CA120033FB10D703994004EB99FB0FD8E5E4F9F7
:10CA2200FA227818EF2FFFEE33FEED33FDEC33FCE4
:10CA3200C933C910D7059BE99A4007EC9BFCE99AD8
:10CA4200F90FD8E0E4C9FAE4CCFB2275F010EF2F1D
:10CA5200FFEE33FEED33FDCC33CCC833C810D7071D
:10CA62009BEC9AE899400AED9BFDEC9AFCE899F858
:0ECA72000FD5F0DAE4CDFBE4CCFAE4C8F922EB
:10CA8000EB9FF5F0EA9E42F0E99D42F0E89C45F00C
:01CA90002283
:10CA9100E8600FECC313FCED13FDEE13FEEF13FF83
:03CAA100D8F122A7
:10CAA400E8600FEFC333FFEE33FEED33FDEC33FCF0
:03CAB400D8F12294
:0CCAB700ECF0A3EDF0A3EEF0A3EFF022F2
:10CAC300A8828583F0D083D08212CADA12CADA121E
:10CAD300CADA12CADAE473E493A3C583C5F0C58343
:10CAE300C8C582C8F0A3C583C5F0C583C8C582C8BD
:01CAF3002220
:06CAF4008A838982E473CD
:10CAFA00EC8EF0A4CCC5F0CCCDF8EFA4CEC5F02DC9
:10CB0A00FDE43CFCE8A42EC8C5F03DFDE43CFCEF86
:0DCB1A00A4FFE5F028FEE43DFDE43CFC2214
:10DE6000900251E0FFA3E0FEA3E0CF90025AF0A39E
:10DE7000EEF0A3EFF0900254E0CBF0A3E0CAF0A3E1
:10DE8000E0C9F07F2290025DAD82AC8312C8F68DAE
:10DE9000828C83F0A309E970010ADFEC900254E060
:0ADEA000FBA3E0FAA3E0F902CBD2E5
:10CB6D00E508245AF582E43402F583E005082290A5
:10CB7D00025730070390025AE475F00112CB2702D9
:10CB8D00C8F62000E97F2ED2008018EF540F2490B4
:10CB9D00D43440D4FF30040BEF24BFB41A0050033B
:10CBAD002461FFE50960021509050CE50C7002050D
:10CBBD000B30070E900257E475F00112CB27EF02F0
:10CBCD00C93C02E00D7403D2078003E4C207F508E7
:10CBDD0090025712CB3EE4F509F50BF50CE5096013
:10CBED00077F2012CBB080F5750AFFC201C200C2CB
:10CBFD0002C203C205C206C20812CB7CFF700D3003
:10CC0D0007057F0012CBC1AF0CAE0B22B4255FC25E
:10CC1D00D5C20412CB7CFF24D0B40A00501A75F093
:10CC2D000A780930D50508B6FF0106C6A426F620F8
:10CC3D00D5047002D20380D924CFB41A00EF50046A
:10CC4D00C2E5D20402CDC2D20180C6D20080C0D2CC
:10CC5D000280BCD2D580BAD20580B47F2012CBB071
:10CC6D002002077401B5090040F112CB6DFF12CB04
:10CC7D00B002CBEAD208D206809512CB6DFB12CB57
:10CC8D006DFA12CB6DF94A4B700679937ACE7BFF14
:10CC9D0020022EE509602A7E008E8275830012C95E
:10CCAD000F60060EEE650A70F0C2D5EBC0E0EAC06B
:10CCBD00E0E9C0E0EE12CE09D0E0F9D0E0FAD0E024
:10CCCD00FB12C8F6FF60AAEBC0E0EAC0E0E9C0E0E5
:10CCDD0012CBB0D0E02401F9D0E03400FAD0E0FB63
:10CCED00E50A0460DCD50AD980877BFF7ACE790509
:10CCFD00D202809C791080027908C206C208800891
:10CD0D00D2D5790A8004790AC2D5E50A047002F5F4
:10CD1D000AE4FAFDFEFF12CB6DFC7B082001131215
:10CD2D00CB6DFD7B1030000A12CB6DFE12CB6DFF6B
:10CD3D007B20EC3382D592D55013C3E43000069F8F
:10CD4D00FFE49EFEE42001039DFDE49CFCE4CBF892
:10CD5D00C201EC700CCFCECDCCE824F8F870F38086
:10CD6D0017C3EF33FFEE33FEED33FDEC33FCEB3346
:10CD7D00FB994002FB0FD8E9EB300105F8D0E0C478
:10CD8D0048B201C0E00AEC4D4E4F78207B0070C2D6
:10CD9D00EAB50A0040BCC0E012CE0BD0F0D0E020C6
:10CDAD000104C4C0E0C4B201C0F012CB99D0F0D5DB
:10CDBD00F0EB02CBEA12CB47CC8753CD0158CC58C0
:10CDCD004CCC5442CD054FCD0D44CD0D49CC6D43CA
:08CDDD00CD1355CCF746CCF74D
:10CDE50045CCF747CEB350CC5C2DCC602ECC832BF5
:10CDF500CC6423CC8120CE9C2ACC1C480000CC7B63
:10CE05003F3F3F00790AA2D5200314300509B91028
:10CE1500020404B9080104A2D52006025001042029
:10CE250002689202B509005034C0E07F2030031932
:10CE35007F30A20272067205500F12CE62C202C284
:10CE450006C205C2087F30800F300503E9C0E01235
:10CE5500CBB0300503D0E0F9D0E0B509CC300517EB
:10CE65007F30B9100C12CBB07F583004077F788023
:10CE750003B9080312CBB03002057F2D02CBB07F7A
:10CE8500202008F87F2B2006F322920280CF286EFF
:10CE9500756C6C2900D20112CB6D3001F8C2017896
:10CEA5000930D50108F602CC1C2D5043495812CB48
:10CEB5006D2403B405004001E490CEAE9312CBA1DE
:0DCEC500743A12CBA1D20375090402CD010D
:10CB2700F8E0FBA3A3E0F925F0F0E5821582700297
:07CB37001583E0FA38F0223B
:09CB3E00EBF0A3EAF0A3E9F022F8
:10CB4700D083D082F8E4937012740193700DA3A37D
:10CB570093F8740193F5828883E473740293686091
:06CB6700EFA3A3A380DF91
:10E00D00EFB40A07740D12E018740A309811A8992C
:10E01D00B8130CC2983098FDA899C298B811F63073
:07E02D0099FDC299F599224B
:00000001FF
